{
  "contractName": "CryptoToken",
  "abi": [
    {
      "inputs": [],
      "stateMutability": "nonpayable",
      "type": "constructor"
    },
    {
      "anonymous": false,
      "inputs": [
        {
          "indexed": false,
          "internalType": "address",
          "name": "from",
          "type": "address"
        },
        {
          "indexed": false,
          "internalType": "address",
          "name": "to",
          "type": "address"
        },
        {
          "indexed": false,
          "internalType": "uint256",
          "name": "value",
          "type": "uint256"
        }
      ],
      "name": "Transfer",
      "type": "event"
    },
    {
      "inputs": [],
      "name": "decimals",
      "outputs": [
        {
          "internalType": "uint8",
          "name": "",
          "type": "uint8"
        }
      ],
      "stateMutability": "view",
      "type": "function",
      "constant": true
    },
    {
      "inputs": [],
      "name": "name",
      "outputs": [
        {
          "internalType": "string",
          "name": "",
          "type": "string"
        }
      ],
      "stateMutability": "view",
      "type": "function",
      "constant": true
    },
    {
      "inputs": [],
      "name": "symbol",
      "outputs": [
        {
          "internalType": "string",
          "name": "",
          "type": "string"
        }
      ],
      "stateMutability": "view",
      "type": "function",
      "constant": true
    },
    {
      "inputs": [],
      "name": "totalSupply",
      "outputs": [
        {
          "internalType": "uint256",
          "name": "",
          "type": "uint256"
        }
      ],
      "stateMutability": "view",
      "type": "function",
      "constant": true
    },
    {
      "inputs": [],
      "name": "showStockGama",
      "outputs": [
        {
          "internalType": "uint256",
          "name": "",
          "type": "uint256"
        }
      ],
      "stateMutability": "view",
      "type": "function",
      "constant": true
    },
    {
      "inputs": [
        {
          "internalType": "address",
          "name": "tokenOwner",
          "type": "address"
        }
      ],
      "name": "balanceOf",
      "outputs": [
        {
          "internalType": "uint256",
          "name": "",
          "type": "uint256"
        }
      ],
      "stateMutability": "view",
      "type": "function",
      "constant": true
    },
    {
      "inputs": [
        {
          "internalType": "address",
          "name": "receiver",
          "type": "address"
        },
        {
          "internalType": "uint256",
          "name": "quantity",
          "type": "uint256"
        }
      ],
      "name": "transfer",
      "outputs": [
        {
          "internalType": "bool",
          "name": "",
          "type": "bool"
        }
      ],
      "stateMutability": "nonpayable",
      "type": "function"
    },
    {
      "inputs": [],
      "name": "buy10",
      "outputs": [],
      "stateMutability": "payable",
      "type": "function",
      "payable": true
    },
    {
      "inputs": [],
      "name": "buy20",
      "outputs": [],
      "stateMutability": "payable",
      "type": "function",
      "payable": true
    },
    {
      "inputs": [],
      "name": "sell10",
      "outputs": [],
      "stateMutability": "nonpayable",
      "type": "function"
    }
  ],
  "bytecode": "0x608060405234801561001057600080fd5b50600063b2d05e009050806000819055508060018190555033600260006101000a81548173ffffffffffffffffffffffffffffffffffffffff021916908373ffffffffffffffffffffffffffffffffffffffff16021790555060005460046000600260009054906101000a900473ffffffffffffffffffffffffffffffffffffffff1673ffffffffffffffffffffffffffffffffffffffff1673ffffffffffffffffffffffffffffffffffffffff168152602001908152602001600020819055506003600260009054906101000a900473ffffffffffffffffffffffffffffffffffffffff169080600181540180825580915050600190039060005260206000200160009091909190916101000a81548173ffffffffffffffffffffffffffffffffffffffff021916908373ffffffffffffffffffffffffffffffffffffffff16021790555050610f59806101666000396000f3fe6080604052600436106100915760003560e01c80635b664e20116100595780635b664e201461012b57806370a082311461015657806395d89b4114610193578063a9059cbb146101be578063ccb82bae146101fb57610091565b806304b1af751461009657806306fdde03146100a05780630cd9f271146100cb57806318160ddd146100d5578063313ce56714610100575b600080fd5b61009e610212565b005b3480156100ac57600080fd5b506100b56102de565b6040516100c29190610955565b60405180910390f35b6100d3610317565b005b3480156100e157600080fd5b506100ea6103e3565b6040516100f79190610990565b60405180910390f35b34801561010c57600080fd5b506101156103ec565b60405161012291906109c7565b60405180910390f35b34801561013757600080fd5b506101406103f1565b60405161014d9190610990565b60405180910390f35b34801561016257600080fd5b5061017d60048036038101906101789190610a45565b6103fb565b60405161018a9190610990565b60405180910390f35b34801561019f57600080fd5b506101a8610444565b6040516101b59190610955565b60405180910390f35b3480156101ca57600080fd5b506101e560048036038101906101e09190610a9e565b61047d565b6040516101f29190610af9565b60405180910390f35b34801561020757600080fd5b50610210610761565b005b671bc16d674ec80000341461022657600080fd5b6014610253600260009054906101000a900473ffffffffffffffffffffffffffffffffffffffff166103fb565b1015610294576040517f08c379a000000000000000000000000000000000000000000000000000000000815260040161028b90610b86565b60405180910390fd5b61029f33601461047d565b507fddf252ad1be2c89b69c2b068fc378daa952ba7f163c4a11628f55a4df523b3ef303360146040516102d493929190610bfa565b60405180910390a1565b6040518060400160405280600b81526020017f43727970746f546f6b656e00000000000000000000000000000000000000000081525081565b670de0b6b3a7640000341461032b57600080fd5b600a610358600260009054906101000a900473ffffffffffffffffffffffffffffffffffffffff166103fb565b1015610399576040517f08c379a000000000000000000000000000000000000000000000000000000000815260040161039090610b86565b60405180910390fd5b6103a433600a61047d565b507fddf252ad1be2c89b69c2b068fc378daa952ba7f163c4a11628f55a4df523b3ef3033600a6040516103d993929190610c6c565b60405180910390a1565b60008054905090565b600381565b6000600154905090565b6000600460008373ffffffffffffffffffffffffffffffffffffffff1673ffffffffffffffffffffffffffffffffffffffff168152602001908152602001600020549050919050565b6040518060400160405280600381526020017f435259000000000000000000000000000000000000000000000000000000000081525081565b600060046000600260009054906101000a900473ffffffffffffffffffffffffffffffffffffffff1673ffffffffffffffffffffffffffffffffffffffff1673ffffffffffffffffffffffffffffffffffffffff16815260200190815260200160002054821115610523576040517f08c379a000000000000000000000000000000000000000000000000000000000815260040161051a90610cef565b60405180910390fd5b8160046000600260009054906101000a900473ffffffffffffffffffffffffffffffffffffffff1673ffffffffffffffffffffffffffffffffffffffff1673ffffffffffffffffffffffffffffffffffffffff168152602001908152602001600020546105909190610d3e565b60046000600260009054906101000a900473ffffffffffffffffffffffffffffffffffffffff1673ffffffffffffffffffffffffffffffffffffffff1673ffffffffffffffffffffffffffffffffffffffff1681526020019081526020016000208190555081600460008573ffffffffffffffffffffffffffffffffffffffff1673ffffffffffffffffffffffffffffffffffffffff168152602001908152602001600020546106409190610d72565b600460008573ffffffffffffffffffffffffffffffffffffffff1673ffffffffffffffffffffffffffffffffffffffff168152602001908152602001600020819055506003839080600181540180825580915050600190039060005260206000200160009091909190916101000a81548173ffffffffffffffffffffffffffffffffffffffff021916908373ffffffffffffffffffffffffffffffffffffffff160217905550816001546106f49190610d3e565b6001819055507fddf252ad1be2c89b69c2b068fc378daa952ba7f163c4a11628f55a4df523b3ef600260009054906101000a900473ffffffffffffffffffffffffffffffffffffffff16848460405161074f93929190610dc8565b60405180910390a16001905092915050565b6000677ce66c50e28400009050600a610779336103fb565b10156107ba576040517f08c379a00000000000000000000000000000000000000000000000000000000081526004016107b190610e71565b60405180910390fd5b80600260009054906101000a900473ffffffffffffffffffffffffffffffffffffffff1673ffffffffffffffffffffffffffffffffffffffff16311015610836576040517f08c379a000000000000000000000000000000000000000000000000000000000815260040161082d90610f03565b60405180910390fd5b3373ffffffffffffffffffffffffffffffffffffffff166108fc829081150290604051600060405180830381858888f1935050505015801561087c573d6000803e3d6000fd5b507fddf252ad1be2c89b69c2b068fc378daa952ba7f163c4a11628f55a4df523b3ef3330600a6040516108b193929190610c6c565b60405180910390a150565b600081519050919050565b600082825260208201905092915050565b60005b838110156108f65780820151818401526020810190506108db565b83811115610905576000848401525b50505050565b6000601f19601f8301169050919050565b6000610927826108bc565b61093181856108c7565b93506109418185602086016108d8565b61094a8161090b565b840191505092915050565b6000602082019050818103600083015261096f818461091c565b905092915050565b6000819050919050565b61098a81610977565b82525050565b60006020820190506109a56000830184610981565b92915050565b600060ff82169050919050565b6109c1816109ab565b82525050565b60006020820190506109dc60008301846109b8565b92915050565b600080fd5b600073ffffffffffffffffffffffffffffffffffffffff82169050919050565b6000610a12826109e7565b9050919050565b610a2281610a07565b8114610a2d57600080fd5b50565b600081359050610a3f81610a19565b92915050565b600060208284031215610a5b57610a5a6109e2565b5b6000610a6984828501610a30565b91505092915050565b610a7b81610977565b8114610a8657600080fd5b50565b600081359050610a9881610a72565b92915050565b60008060408385031215610ab557610ab46109e2565b5b6000610ac385828601610a30565b9250506020610ad485828601610a89565b9150509250929050565b60008115159050919050565b610af381610ade565b82525050565b6000602082019050610b0e6000830184610aea565b92915050565b7f4e6f7420656e6f7567682047616d617320696e2073746f636b20746f2066756c60008201527f66696c6c20707572636861736520726571756573742e00000000000000000000602082015250565b6000610b706036836108c7565b9150610b7b82610b14565b604082019050919050565b60006020820190508181036000830152610b9f81610b63565b9050919050565b610baf81610a07565b82525050565b6000819050919050565b6000819050919050565b6000610be4610bdf610bda84610bb5565b610bbf565b610977565b9050919050565b610bf481610bc9565b82525050565b6000606082019050610c0f6000830186610ba6565b610c1c6020830185610ba6565b610c296040830184610beb565b949350505050565b6000819050919050565b6000610c56610c51610c4c84610c31565b610bbf565b610977565b9050919050565b610c6681610c3b565b82525050565b6000606082019050610c816000830186610ba6565b610c8e6020830185610ba6565b610c9b6040830184610c5d565b949350505050565b7f496e73756666696369656e742042616c616e636520746f205472616e73666572600082015250565b6000610cd96020836108c7565b9150610ce482610ca3565b602082019050919050565b60006020820190508181036000830152610d0881610ccc565b9050919050565b7f4e487b7100000000000000000000000000000000000000000000000000000000600052601160045260246000fd5b6000610d4982610977565b9150610d5483610977565b925082821015610d6757610d66610d0f565b5b828203905092915050565b6000610d7d82610977565b9150610d8883610977565b9250827fffffffffffffffffffffffffffffffffffffffffffffffffffffffffffffffff03821115610dbd57610dbc610d0f565b5b828201905092915050565b6000606082019050610ddd6000830186610ba6565b610dea6020830185610ba6565b610df76040830184610981565b949350505050565b7f4e6f7420656e6f7567682047616d617320746f20747261646520666f7220657460008201527f6865722e00000000000000000000000000000000000000000000000000000000602082015250565b6000610e5b6024836108c7565b9150610e6682610dff565b604082019050919050565b60006020820190508181036000830152610e8a81610e4e565b9050919050565b7f4e6f7420656e6f7567682065746865727320746f2070617920666f722074686960008201527f73207472616e73616374696f6e2e000000000000000000000000000000000000602082015250565b6000610eed602e836108c7565b9150610ef882610e91565b604082019050919050565b60006020820190508181036000830152610f1c81610ee0565b905091905056fea2646970667358221220c39bba525f0f8f3d298061e5391ac9ce18cd6f9f4ef342855dcaa50b7a8ee21464736f6c634300080e0033",
  "immutableReferences": {},
  "source": "// SPDX-License-Identifier: MIT\npragma solidity >=0.4.22 <0.9.0;\n\ninterface IERC20 {\n    function totalSupply() external view returns (uint256);\n    function balanceOf(address account) external view returns (uint256);\n    function transfer(address recipient, uint256 amount) external returns (bool);\n    event Transfer(address from, address to, uint256 value);\n    \n}\n\ncontract CryptoToken is IERC20 {\n\n\n    //Properties\n    string public constant name = \"CryptoToken\";\n    string public constant symbol = \"CRY\";\n    uint8 public constant decimals = 3; //Default dos exemplos  sempre 18\n    uint256 private totalsupply;\n    uint256 private stockGama;\n    address private owner;\n    address[] private tokenOwners;\n\n    mapping(address => uint256) private addressToBalance;\n\n    modifier isOwner() {\n        require(address(msg.sender) == owner, \"Sender is not owner!\");\n        _;\n    }\n\n    //Constructor\n    constructor() {\n        uint256 total = 3000000000;\n        totalsupply = total;\n        stockGama = total;\n        owner = msg.sender;\n        addressToBalance[owner] = totalsupply;\n        tokenOwners.push(owner);\n    }\n\n    //Public Functions\n    function totalSupply() public view override returns (uint256) {\n        return totalsupply;\n    }\n\n    function showStockGama() public view returns(uint256)  {\n        return stockGama;\n    }\n\n    function balanceOf(address tokenOwner) public view override returns (uint256){\n        return addressToBalance[tokenOwner];\n    }\n\n\n    function transfer(address receiver, uint256 quantity) public override returns (bool){\n        require(quantity <= addressToBalance[owner],\"Insufficient Balance to Transfer\");\n        addressToBalance[owner] = addressToBalance[owner] - quantity;\n        addressToBalance[receiver] = addressToBalance[receiver] + quantity;\n        tokenOwners.push(receiver);\n        stockGama = stockGama - quantity;\n        emit Transfer(owner, receiver, quantity);\n        return true;\n    }\n\n    function buy10() public payable{\n        require(msg.value == 1 ether);\n        require(balanceOf(owner) >= 10, \"Not enough Gamas in stock to fulfill purchase request.\");\n        transfer(msg.sender, 10);\n        emit Transfer(address(this), msg.sender, 10);\n    }\n\n    function buy20() public payable{\n        require(msg.value == 2 ether);\n        require(balanceOf(owner) >= 20, \"Not enough Gamas in stock to fulfill purchase request.\");\n        transfer(msg.sender, 20);\n        emit Transfer(address(this), msg.sender, 20);\n    }\n    \n    \n    function sell10() public{\n        uint256 valueToPay;\n        valueToPay = 10*900000000000000000;\n        require(balanceOf(msg.sender) >= 10, \"Not enough Gamas to trade for ether.\");\n        require(owner.balance >= valueToPay, \"Not enough ethers to pay for this transaction.\");\n        payable(msg.sender).transfer(valueToPay);\n        emit Transfer(msg.sender, address(this), 10);\n    }\n\n    \n}\n//const instance = await CryptoToken.deployed()\n//instance.buy10({from:accounts[1], value: \"1000000000000000000\"})",
  "sourcePath": "/home/jp/rea de Trabalho/UdemySolidity+React/Vending Machine+React/contracts/CryptoToken.sol",
  "compiler": {
    "name": "solc",
    "version": "0.8.14+commit.80d49f37.Emscripten.clang"
  },
  "schemaVersion": "3.4.7",
  "updatedAt": "2022-07-08T23:26:29.869Z",
  "networkType": "ethereum",
  "devdoc": {
    "kind": "dev",
    "methods": {},
    "version": 1
  },
  "userdoc": {
    "kind": "user",
    "methods": {},
    "version": 1
  }
}