{
  "contractName": "Faucet",
  "abi": [
    {
      "inputs": [
        {
          "internalType": "address",
          "name": "",
          "type": "address"
        }
      ],
      "name": "funders",
      "outputs": [
        {
          "internalType": "bool",
          "name": "",
          "type": "bool"
        }
      ],
      "stateMutability": "view",
      "type": "function",
      "constant": true
    },
    {
      "inputs": [],
      "name": "numOfFunders",
      "outputs": [
        {
          "internalType": "uint256",
          "name": "",
          "type": "uint256"
        }
      ],
      "stateMutability": "view",
      "type": "function",
      "constant": true
    },
    {
      "inputs": [],
      "name": "owner",
      "outputs": [
        {
          "internalType": "address",
          "name": "",
          "type": "address"
        }
      ],
      "stateMutability": "view",
      "type": "function",
      "constant": true
    },
    {
      "inputs": [
        {
          "internalType": "uint256",
          "name": "",
          "type": "uint256"
        }
      ],
      "name": "rgtFunders",
      "outputs": [
        {
          "internalType": "address",
          "name": "",
          "type": "address"
        }
      ],
      "stateMutability": "view",
      "type": "function",
      "constant": true
    },
    {
      "stateMutability": "payable",
      "type": "receive",
      "payable": true
    },
    {
      "inputs": [],
      "name": "addFunds",
      "outputs": [],
      "stateMutability": "payable",
      "type": "function",
      "payable": true
    },
    {
      "inputs": [
        {
          "internalType": "uint256",
          "name": "withdrawAmount",
          "type": "uint256"
        }
      ],
      "name": "withdraw",
      "outputs": [],
      "stateMutability": "nonpayable",
      "type": "function"
    },
    {
      "inputs": [],
      "name": "getAllFunders",
      "outputs": [
        {
          "internalType": "address[]",
          "name": "",
          "type": "address[]"
        }
      ],
      "stateMutability": "view",
      "type": "function",
      "constant": true
    },
    {
      "inputs": [
        {
          "internalType": "uint8",
          "name": "index",
          "type": "uint8"
        }
      ],
      "name": "getFunderAtIndex",
      "outputs": [
        {
          "internalType": "address",
          "name": "",
          "type": "address"
        }
      ],
      "stateMutability": "view",
      "type": "function",
      "constant": true
    }
  ],
  "bytecode": "0x608060405234801561001057600080fd5b50610b61806100206000396000f3fe60806040526004361061007f5760003560e01c80636fbbb55d1161004e5780636fbbb55d1461016b5780638da5cb5b14610196578063a26759cb146101c1578063af7f2c9b146101cb57610086565b8063031b36771461008b5780630a93cf33146100c85780632ac2c13e146101055780632e1a7d4d1461014257610086565b3661008657005b600080fd5b34801561009757600080fd5b506100b260048036038101906100ad91906106e7565b6101f6565b6040516100bf919061072f565b60405180910390f35b3480156100d457600080fd5b506100ef60048036038101906100ea9190610783565b610216565b6040516100fc91906107bf565b60405180910390f35b34801561011157600080fd5b5061012c60048036038101906101279190610810565b6102e6565b60405161013991906107bf565b60405180910390f35b34801561014e57600080fd5b5061016960048036038101906101649190610810565b610319565b005b34801561017757600080fd5b506101806103b0565b60405161018d91906108fb565b60405180910390f35b3480156101a257600080fd5b506101ab610539565b6040516101b891906107bf565b60405180910390f35b6101c961055f565b005b3480156101d757600080fd5b506101e061067e565b6040516101ed919061092c565b60405180910390f35b60026020528060005260406000206000915054906101000a900460ff1681565b6000600160009054906101000a900473ffffffffffffffffffffffffffffffffffffffff1673ffffffffffffffffffffffffffffffffffffffff163373ffffffffffffffffffffffffffffffffffffffff16146102a8576040517f08c379a000000000000000000000000000000000000000000000000000000000815260040161029f906109a4565b60405180910390fd5b600360008360ff16815260200190815260200160002060009054906101000a900473ffffffffffffffffffffffffffffffffffffffff169050919050565b60036020528060005260406000206000915054906101000a900473ffffffffffffffffffffffffffffffffffffffff1681565b8067016345785d8a0000811115610365576040517f08c379a000000000000000000000000000000000000000000000000000000000815260040161035c90610a36565b60405180910390fd5b3373ffffffffffffffffffffffffffffffffffffffff166108fc839081150290604051600060405180830381858888f193505050501580156103ab573d6000803e3d6000fd5b505050565b6060600160009054906101000a900473ffffffffffffffffffffffffffffffffffffffff1673ffffffffffffffffffffffffffffffffffffffff163373ffffffffffffffffffffffffffffffffffffffff1614610442576040517f08c379a0000000000000000000000000000000000000000000000000000000008152600401610439906109a4565b60405180910390fd5b6000805467ffffffffffffffff81111561045f5761045e610a56565b5b60405190808252806020026020018201604052801561048d5781602001602082028036833780820191505090505b50905060005b600054811015610531576003600082815260200190815260200160002060009054906101000a900473ffffffffffffffffffffffffffffffffffffffff168282815181106104e4576104e3610a85565b5b602002602001019073ffffffffffffffffffffffffffffffffffffffff16908173ffffffffffffffffffffffffffffffffffffffff1681525050808061052990610ae3565b915050610493565b508091505090565b600160009054906101000a900473ffffffffffffffffffffffffffffffffffffffff1681565b6000339050600260008273ffffffffffffffffffffffffffffffffffffffff1673ffffffffffffffffffffffffffffffffffffffff16815260200190815260200160002060009054906101000a900460ff1661067b5760008060008154809291906105c990610ae3565b9190505590506001600260008473ffffffffffffffffffffffffffffffffffffffff1673ffffffffffffffffffffffffffffffffffffffff16815260200190815260200160002060006101000a81548160ff021916908315150217905550816003600083815260200190815260200160002060006101000a81548173ffffffffffffffffffffffffffffffffffffffff021916908373ffffffffffffffffffffffffffffffffffffffff160217905550505b50565b60005481565b600080fd5b600073ffffffffffffffffffffffffffffffffffffffff82169050919050565b60006106b482610689565b9050919050565b6106c4816106a9565b81146106cf57600080fd5b50565b6000813590506106e1816106bb565b92915050565b6000602082840312156106fd576106fc610684565b5b600061070b848285016106d2565b91505092915050565b60008115159050919050565b61072981610714565b82525050565b60006020820190506107446000830184610720565b92915050565b600060ff82169050919050565b6107608161074a565b811461076b57600080fd5b50565b60008135905061077d81610757565b92915050565b60006020828403121561079957610798610684565b5b60006107a78482850161076e565b91505092915050565b6107b9816106a9565b82525050565b60006020820190506107d460008301846107b0565b92915050565b6000819050919050565b6107ed816107da565b81146107f857600080fd5b50565b60008135905061080a816107e4565b92915050565b60006020828403121561082657610825610684565b5b6000610834848285016107fb565b91505092915050565b600081519050919050565b600082825260208201905092915050565b6000819050602082019050919050565b610872816106a9565b82525050565b60006108848383610869565b60208301905092915050565b6000602082019050919050565b60006108a88261083d565b6108b28185610848565b93506108bd83610859565b8060005b838110156108ee5781516108d58882610878565b97506108e083610890565b9250506001810190506108c1565b5085935050505092915050565b60006020820190508181036000830152610915818461089d565b905092915050565b610926816107da565b82525050565b6000602082019050610941600083018461091d565b92915050565b600082825260208201905092915050565b7f4f6e6c79206f776e65722063616e2075736520746869732e0000000000000000600082015250565b600061098e601883610947565b915061099982610958565b602082019050919050565b600060208201905081810360008301526109bd81610981565b9050919050565b7f596f752063616e206f6e6c79207769746864726177206c657373207468616e2060008201527f302e312065746865720000000000000000000000000000000000000000000000602082015250565b6000610a20602983610947565b9150610a2b826109c4565b604082019050919050565b60006020820190508181036000830152610a4f81610a13565b9050919050565b7f4e487b7100000000000000000000000000000000000000000000000000000000600052604160045260246000fd5b7f4e487b7100000000000000000000000000000000000000000000000000000000600052603260045260246000fd5b7f4e487b7100000000000000000000000000000000000000000000000000000000600052601160045260246000fd5b6000610aee826107da565b91507fffffffffffffffffffffffffffffffffffffffffffffffffffffffffffffffff8203610b2057610b1f610ab4565b5b60018201905091905056fea2646970667358221220c9fa89e7be56bfe5ec4b91a03469cbef8c584fe55b5fee941de82e702278bd0464736f6c634300080e0033",
  "immutableReferences": {},
  "source": "// SPDX-License-Identifier: MIT\npragma solidity >=0.4.22 <0.9.0;\n\n\n\ncontract Faucet {\n\n    //storage variables\n    uint public numOfFunders;\n    \n    address public owner;\n    mapping(address => bool) public funders;\n    mapping(uint => address) public rgtFunders;\n\n    \n\n    //modifiers\n    modifier isOwner {\n        require(msg.sender == owner,\"Only owner can use this.\");\n        _;\n    }\n    \n\n    modifier limitWithdraw(uint withdrawAmount) {\n\n    require(withdrawAmount <= 100000000000000000,\"You can only withdraw less than 0.1 ether\");\n    _;\n    \n    }\n    \n    //funo receive\n    receive() external payable {}\n\n    \n\n    function addFunds()  external payable {\n        address funder = msg.sender;\n        \n\n        if (!funders[funder]){\n            uint index = numOfFunders++;\n            funders[funder] = true;\n            rgtFunders[index] = funder;\n        }\n    }\n\n    function withdraw(uint withdrawAmount) external  limitWithdraw(withdrawAmount){\n        \n        payable(msg.sender).transfer(withdrawAmount);\n\n    }\n\n    function getAllFunders() external view isOwner returns (address[] memory){\n        address[] memory _funders = new address[](numOfFunders);\n        for(uint i = 0; i < numOfFunders; i++){\n            _funders[i] = rgtFunders[i];\n        }\n\n        return _funders;\n\n    }\n\n    function getFunderAtIndex(uint8 index) external view isOwner returns(address){\n        \n        return rgtFunders[index];\n\n    }\n\n\n\n}\n\n//Comandos do truffle console\n\n//const instance = await Faucet.deployed()\n//0xB7AC6519F010F1710Fb1Bb46a64ca4A08097d07a)\n//instance.addFunds({from:accounts[2], value:\"1000000000000000000\"})\n\n//instance.withdraw(\"500000000000000000\", {from: accounts[1]})\n//instance.getFunderAtIndex()\n//instance.getAllFunders()\n//",
  "sourcePath": "/home/jp/rea de Trabalho/UdemySolidity+React/Vending Machine+React/contracts/FaucetContract.sol",
  "compiler": {
    "name": "solc",
    "version": "0.8.14+commit.80d49f37.Emscripten.clang"
  },
  "schemaVersion": "3.4.7",
  "updatedAt": "2022-07-09T16:23:21.844Z",
  "networkType": "ethereum",
  "devdoc": {
    "kind": "dev",
    "methods": {},
    "version": 1
  },
  "userdoc": {
    "kind": "user",
    "methods": {},
    "version": 1
  }
}