{
  "contractName": "JPToken",
  "abi": [
    {
      "inputs": [],
      "stateMutability": "nonpayable",
      "type": "constructor"
    },
    {
      "anonymous": false,
      "inputs": [
        {
          "indexed": false,
          "internalType": "address",
          "name": "from",
          "type": "address"
        },
        {
          "indexed": false,
          "internalType": "address",
          "name": "to",
          "type": "address"
        },
        {
          "indexed": false,
          "internalType": "uint256",
          "name": "value",
          "type": "uint256"
        }
      ],
      "name": "Transfer",
      "type": "event"
    },
    {
      "inputs": [],
      "name": "decimals",
      "outputs": [
        {
          "internalType": "uint8",
          "name": "",
          "type": "uint8"
        }
      ],
      "stateMutability": "view",
      "type": "function",
      "constant": true
    },
    {
      "inputs": [],
      "name": "name",
      "outputs": [
        {
          "internalType": "string",
          "name": "",
          "type": "string"
        }
      ],
      "stateMutability": "view",
      "type": "function",
      "constant": true
    },
    {
      "inputs": [],
      "name": "symbol",
      "outputs": [
        {
          "internalType": "string",
          "name": "",
          "type": "string"
        }
      ],
      "stateMutability": "view",
      "type": "function",
      "constant": true
    },
    {
      "inputs": [],
      "name": "totalSupply",
      "outputs": [
        {
          "internalType": "uint256",
          "name": "",
          "type": "uint256"
        }
      ],
      "stateMutability": "view",
      "type": "function",
      "constant": true
    },
    {
      "inputs": [],
      "name": "showStockJPT",
      "outputs": [
        {
          "internalType": "uint256",
          "name": "",
          "type": "uint256"
        }
      ],
      "stateMutability": "view",
      "type": "function",
      "constant": true
    },
    {
      "inputs": [
        {
          "internalType": "address",
          "name": "tokenOwner",
          "type": "address"
        }
      ],
      "name": "balanceOf",
      "outputs": [
        {
          "internalType": "uint256",
          "name": "",
          "type": "uint256"
        }
      ],
      "stateMutability": "view",
      "type": "function",
      "constant": true
    },
    {
      "inputs": [],
      "name": "buy10",
      "outputs": [],
      "stateMutability": "payable",
      "type": "function",
      "payable": true
    },
    {
      "inputs": [],
      "name": "buy20",
      "outputs": [],
      "stateMutability": "payable",
      "type": "function",
      "payable": true
    },
    {
      "inputs": [],
      "name": "sell10",
      "outputs": [],
      "stateMutability": "nonpayable",
      "type": "function"
    },
    {
      "inputs": [],
      "name": "restockEth",
      "outputs": [],
      "stateMutability": "payable",
      "type": "function",
      "payable": true
    },
    {
      "inputs": [],
      "name": "contractBalance",
      "outputs": [
        {
          "internalType": "uint256",
          "name": "",
          "type": "uint256"
        }
      ],
      "stateMutability": "view",
      "type": "function",
      "constant": true
    },
    {
      "inputs": [],
      "name": "toWithdraw",
      "outputs": [],
      "stateMutability": "payable",
      "type": "function",
      "payable": true
    }
  ],
  "bytecode": "0x608060405234801561001057600080fd5b50600063b2d05e009050806000819055508060018190555033600260006101000a81548173ffffffffffffffffffffffffffffffffffffffff021916908373ffffffffffffffffffffffffffffffffffffffff16021790555060015460046000600260009054906101000a900473ffffffffffffffffffffffffffffffffffffffff1673ffffffffffffffffffffffffffffffffffffffff1673ffffffffffffffffffffffffffffffffffffffff168152602001908152602001600020819055506003600260009054906101000a900473ffffffffffffffffffffffffffffffffffffffff169080600181540180825580915050600190039060005260206000200160009091909190916101000a81548173ffffffffffffffffffffffffffffffffffffffff021916908373ffffffffffffffffffffffffffffffffffffffff160217905550506112d3806101666000396000f3fe6080604052600436106100a75760003560e01c8063347f233611610064578063347f23361461014b57806341affa381461015557806370a08231146101805780638b7afe2e146101bd57806395d89b41146101e8578063ccb82bae14610213576100a7565b806304b1af75146100ac57806306fdde03146100b65780630cd9f271146100e157806318160ddd146100eb57806319ceb00314610116578063313ce56714610120575b600080fd5b6100b461022a565b005b3480156100c257600080fd5b506100cb6102f6565b6040516100d89190610c73565b60405180910390f35b6100e961032f565b005b3480156100f757600080fd5b506101006103fb565b60405161010d9190610cae565b60405180910390f35b61011e610404565b005b34801561012c57600080fd5b506101356104d9565b6040516101429190610ce5565b60405180910390f35b6101536104de565b005b34801561016157600080fd5b5061016a6105f2565b6040516101779190610cae565b60405180910390f35b34801561018c57600080fd5b506101a760048036038101906101a29190610d63565b6105fc565b6040516101b49190610cae565b60405180910390f35b3480156101c957600080fd5b506101d2610645565b6040516101df9190610cae565b60405180910390f35b3480156101f457600080fd5b506101fd61064d565b60405161020a9190610c73565b60405180910390f35b34801561021f57600080fd5b50610228610686565b005b671bc16d674ec80000341461023e57600080fd5b601461026b600260009054906101000a900473ffffffffffffffffffffffffffffffffffffffff166105fc565b10156102ac576040517f08c379a00000000000000000000000000000000000000000000000000000000081526004016102a390610e02565b60405180910390fd5b6102b733601461090a565b507fddf252ad1be2c89b69c2b068fc378daa952ba7f163c4a11628f55a4df523b3ef303360146040516102ec93929190610e76565b60405180910390a1565b6040518060400160405280600781526020017f4a50546f6b656e0000000000000000000000000000000000000000000000000081525081565b670de0b6b3a7640000341461034357600080fd5b600a610370600260009054906101000a900473ffffffffffffffffffffffffffffffffffffffff166105fc565b10156103b1576040517f08c379a00000000000000000000000000000000000000000000000000000000081526004016103a890610e02565b60405180910390fd5b6103bc33600a61090a565b507fddf252ad1be2c89b69c2b068fc378daa952ba7f163c4a11628f55a4df523b3ef3033600a6040516103f193929190610ee8565b60405180910390a1565b60008054905090565b600260009054906101000a900473ffffffffffffffffffffffffffffffffffffffff1673ffffffffffffffffffffffffffffffffffffffff163373ffffffffffffffffffffffffffffffffffffffff1614610494576040517f08c379a000000000000000000000000000000000000000000000000000000000815260040161048b90610f6b565b60405180910390fd5b600034116104d7576040517f08c379a00000000000000000000000000000000000000000000000000000000081526004016104ce90610ffd565b60405180910390fd5b565b600381565b600260009054906101000a900473ffffffffffffffffffffffffffffffffffffffff1673ffffffffffffffffffffffffffffffffffffffff163373ffffffffffffffffffffffffffffffffffffffff161461056e576040517f08c379a000000000000000000000000000000000000000000000000000000000815260040161056590610f6b565b60405180910390fd5b3373ffffffffffffffffffffffffffffffffffffffff166108fc479081150290604051600060405180830381858888f193505050501580156105b4573d6000803e3d6000fd5b507fddf252ad1be2c89b69c2b068fc378daa952ba7f163c4a11628f55a4df523b3ef3033476040516105e89392919061101d565b60405180910390a1565b6000600154905090565b6000600460008373ffffffffffffffffffffffffffffffffffffffff1673ffffffffffffffffffffffffffffffffffffffff168152602001908152602001600020549050919050565b600047905090565b6040518060400160405280600381526020017f4a544b000000000000000000000000000000000000000000000000000000000081525081565b6000670c7d713b49da00009050600a60046000600260009054906101000a900473ffffffffffffffffffffffffffffffffffffffff1673ffffffffffffffffffffffffffffffffffffffff1673ffffffffffffffffffffffffffffffffffffffff168152602001908152602001600020546107019190611083565b60046000600260009054906101000a900473ffffffffffffffffffffffffffffffffffffffff1673ffffffffffffffffffffffffffffffffffffffff1673ffffffffffffffffffffffffffffffffffffffff16815260200190815260200160002081905550600a600460003373ffffffffffffffffffffffffffffffffffffffff1673ffffffffffffffffffffffffffffffffffffffff168152602001908152602001600020546107b291906110d9565b600460003373ffffffffffffffffffffffffffffffffffffffff1673ffffffffffffffffffffffffffffffffffffffff16815260200190815260200160002081905550600a610800336105fc565b1015610841576040517f08c379a00000000000000000000000000000000000000000000000000000000081526004016108389061117f565b60405180910390fd5b80471015610884576040517f08c379a000000000000000000000000000000000000000000000000000000000815260040161087b90611211565b60405180910390fd5b3373ffffffffffffffffffffffffffffffffffffffff166108fc829081150290604051600060405180830381858888f193505050501580156108ca573d6000803e3d6000fd5b507fddf252ad1be2c89b69c2b068fc378daa952ba7f163c4a11628f55a4df523b3ef3330600a6040516108ff93929190610ee8565b60405180910390a150565b600060046000600260009054906101000a900473ffffffffffffffffffffffffffffffffffffffff1673ffffffffffffffffffffffffffffffffffffffff1673ffffffffffffffffffffffffffffffffffffffff168152602001908152602001600020548211156109b0576040517f08c379a00000000000000000000000000000000000000000000000000000000081526004016109a79061127d565b60405180910390fd5b8160046000600260009054906101000a900473ffffffffffffffffffffffffffffffffffffffff1673ffffffffffffffffffffffffffffffffffffffff1673ffffffffffffffffffffffffffffffffffffffff16815260200190815260200160002054610a1d91906110d9565b60046000600260009054906101000a900473ffffffffffffffffffffffffffffffffffffffff1673ffffffffffffffffffffffffffffffffffffffff1673ffffffffffffffffffffffffffffffffffffffff1681526020019081526020016000208190555081600460008573ffffffffffffffffffffffffffffffffffffffff1673ffffffffffffffffffffffffffffffffffffffff16815260200190815260200160002054610acd9190611083565b600460008573ffffffffffffffffffffffffffffffffffffffff1673ffffffffffffffffffffffffffffffffffffffff168152602001908152602001600020819055506003839080600181540180825580915050600190039060005260206000200160009091909190916101000a81548173ffffffffffffffffffffffffffffffffffffffff021916908373ffffffffffffffffffffffffffffffffffffffff1602179055507fddf252ad1be2c89b69c2b068fc378daa952ba7f163c4a11628f55a4df523b3ef600260009054906101000a900473ffffffffffffffffffffffffffffffffffffffff168484604051610bc89392919061101d565b60405180910390a16001905092915050565b600081519050919050565b600082825260208201905092915050565b60005b83811015610c14578082015181840152602081019050610bf9565b83811115610c23576000848401525b50505050565b6000601f19601f8301169050919050565b6000610c4582610bda565b610c4f8185610be5565b9350610c5f818560208601610bf6565b610c6881610c29565b840191505092915050565b60006020820190508181036000830152610c8d8184610c3a565b905092915050565b6000819050919050565b610ca881610c95565b82525050565b6000602082019050610cc36000830184610c9f565b92915050565b600060ff82169050919050565b610cdf81610cc9565b82525050565b6000602082019050610cfa6000830184610cd6565b92915050565b600080fd5b600073ffffffffffffffffffffffffffffffffffffffff82169050919050565b6000610d3082610d05565b9050919050565b610d4081610d25565b8114610d4b57600080fd5b50565b600081359050610d5d81610d37565b92915050565b600060208284031215610d7957610d78610d00565b5b6000610d8784828501610d4e565b91505092915050565b7f4e6f7420656e6f756768204a546f6b656e20696e2073746f636b20746f20667560008201527f6c66696c6c20707572636861736520726571756573742e000000000000000000602082015250565b6000610dec603783610be5565b9150610df782610d90565b604082019050919050565b60006020820190508181036000830152610e1b81610ddf565b9050919050565b610e2b81610d25565b82525050565b6000819050919050565b6000819050919050565b6000610e60610e5b610e5684610e31565b610e3b565b610c95565b9050919050565b610e7081610e45565b82525050565b6000606082019050610e8b6000830186610e22565b610e986020830185610e22565b610ea56040830184610e67565b949350505050565b6000819050919050565b6000610ed2610ecd610ec884610ead565b610e3b565b610c95565b9050919050565b610ee281610eb7565b82525050565b6000606082019050610efd6000830186610e22565b610f0a6020830185610e22565b610f176040830184610ed9565b949350505050565b7f53656e646572206973206e6f74206f776e657221000000000000000000000000600082015250565b6000610f55601483610be5565b9150610f6082610f1f565b602082019050919050565b60006020820190508181036000830152610f8481610f48565b9050919050565b7f596f752063616e277420726573746f636b2030206f72206c657373204574686560008201527f72732e0000000000000000000000000000000000000000000000000000000000602082015250565b6000610fe7602383610be5565b9150610ff282610f8b565b604082019050919050565b6000602082019050818103600083015261101681610fda565b9050919050565b60006060820190506110326000830186610e22565b61103f6020830185610e22565b61104c6040830184610c9f565b949350505050565b7f4e487b7100000000000000000000000000000000000000000000000000000000600052601160045260246000fd5b600061108e82610c95565b915061109983610c95565b9250827fffffffffffffffffffffffffffffffffffffffffffffffffffffffffffffffff038211156110ce576110cd611054565b5b828201905092915050565b60006110e482610c95565b91506110ef83610c95565b92508282101561110257611101611054565b5b828203905092915050565b7f4e6f7420656e6f756768204a546f6b656e20746f20747261646520666f72206560008201527f746865722e000000000000000000000000000000000000000000000000000000602082015250565b6000611169602583610be5565b91506111748261110d565b604082019050919050565b600060208201905081810360008301526111988161115c565b9050919050565b7f4e6f7420656e6f7567682065746865727320746f2070617920666f722074686960008201527f73207472616e73616374696f6e2e000000000000000000000000000000000000602082015250565b60006111fb602e83610be5565b91506112068261119f565b604082019050919050565b6000602082019050818103600083015261122a816111ee565b9050919050565b7f496e73756666696369656e742042616c616e636520746f205472616e73666572600082015250565b6000611267602083610be5565b915061127282611231565b602082019050919050565b600060208201905081810360008301526112968161125a565b905091905056fea264697066735822122022ad46050eff8f2e6fa2b2b5bdd7ae987914276f7e6b648265c4a84ceef57b1864736f6c634300080e0033",
  "immutableReferences": {},
  "source": "// SPDX-License-Identifier: MIT\npragma solidity >=0.4.22 <0.9.0;\n\ninterface IERC20 {\n    function totalSupply() external view returns (uint256);\n    function balanceOf(address account) external view returns (uint256);\n    event Transfer(address from, address to, uint256 value);\n    \n}\n    contract JPToken is IERC20 {\n\n\n    //Properties\n    string public constant name = \"JPToken\";\n    string public constant symbol = \"JTK\";\n    uint8 public constant decimals = 3; //Default dos exemplos  sempre 18\n    uint256 private totalsupply;\n    uint256 private stockJPToken;\n    address private owner;\n    address[] private tokenOwners;\n\n    mapping(address => uint256) private addressToBalance;\n\n    modifier isOwner() {\n        require(address(msg.sender) == owner, \"Sender is not owner!\");\n        _;\n    }\n\n    //Constructor\n    constructor() {\n        uint256 total = 3000000000;\n        totalsupply = total;\n        stockJPToken = total;\n        owner = msg.sender;\n        addressToBalance[owner] = stockJPToken;\n        tokenOwners.push(owner);\n    }\n\n    //Public Functions\n    function totalSupply() public view override returns (uint256) {\n        return totalsupply;\n    }\n\n    function showStockJPT() public view returns(uint256)  {\n        return stockJPToken;\n    }\n\n    function balanceOf(address tokenOwner) public view override returns (uint256){\n        return addressToBalance[tokenOwner];\n    }\n\n\n    function transfer(address receiver, uint256 quantity) private returns (bool){\n        require(quantity <= addressToBalance[owner],\"Insufficient Balance to Transfer\");\n        addressToBalance[owner] = addressToBalance[owner] - quantity;\n        addressToBalance[receiver] = addressToBalance[receiver] + quantity;\n        tokenOwners.push(receiver);\n        emit Transfer(owner, receiver, quantity);\n        return true;\n    }\n\n    function buy10() public payable{\n        require(msg.value == 1 ether);\n        require(balanceOf(owner) >= 10, \"Not enough JToken in stock to fulfill purchase request.\");\n        transfer(msg.sender, 10);\n        emit Transfer(address(this), msg.sender, 10);\n    }\n\n    function buy20() public payable{\n        require(msg.value == 2 ether);\n        require(balanceOf(owner) >= 20, \"Not enough JToken in stock to fulfill purchase request.\");\n        transfer(msg.sender, 20);\n        emit Transfer(address(this), msg.sender, 20);\n    }\n    \n    \n    function sell10() public{\n        uint256 valueToPay;\n        valueToPay = 900000000000000000;\n        addressToBalance[owner] = addressToBalance[owner] + 10;\n        addressToBalance[msg.sender] = addressToBalance[msg.sender] - 10;\n        require(balanceOf(msg.sender) >= 10, \"Not enough JToken to trade for ether.\");\n        require(address(this).balance >= valueToPay, \"Not enough ethers to pay for this transaction.\");\n        payable(msg.sender).transfer(valueToPay);\n        \n        emit Transfer(msg.sender, address(this), 10);\n    }\n\n    function restockEth() public payable isOwner{\n        require(msg.value > 0,\"You can't restock 0 or less Ethers.\");\n    }\n\n    function contractBalance () public view returns(uint256) {\n        return address(this).balance;\n    }\n\n    function toWithdraw() public payable isOwner{\n        payable(msg.sender).transfer(address(this).balance);\n        emit Transfer(address(this), msg.sender, address(this).balance);\n    }\n}\n//const instance = await JPToken.deployed()\n//instance.buy10({from:accounts[1], value: \"1000000000000000000\"})\n//instance.contractBalance().then(b => { return b.toString()})\n//instance.balanceOf('0x7d4E11705806a4fCbF0A8C7a9F747EaA87351312').then(b => {return b.toString()})",
  "sourcePath": "/home/jp/rea de Trabalho/UdemySolidity+React/Vending Machine+React/contracts/JPToken.sol",
  "compiler": {
    "name": "solc",
    "version": "0.8.14+commit.80d49f37.Emscripten.clang"
  },
  "schemaVersion": "3.4.7",
  "updatedAt": "2022-07-09T16:23:27.538Z",
  "networkType": "ethereum",
  "devdoc": {
    "kind": "dev",
    "methods": {},
    "version": 1
  },
  "userdoc": {
    "kind": "user",
    "methods": {},
    "version": 1
  }
}