{
  "contractName": "Math",
  "abi": [
    {
      "inputs": [
        {
          "internalType": "uint256",
          "name": "a",
          "type": "uint256"
        },
        {
          "internalType": "uint256",
          "name": "b",
          "type": "uint256"
        }
      ],
      "name": "percent",
      "outputs": [
        {
          "internalType": "uint256",
          "name": "",
          "type": "uint256"
        }
      ],
      "stateMutability": "pure",
      "type": "function"
    }
  ],
  "bytecode": "0x610294610053600b82828239805160001a607314610046577f4e487b7100000000000000000000000000000000000000000000000000000000600052600060045260246000fd5b30600052607381538281f3fe73000000000000000000000000000000000000000030146080604052600436106100355760003560e01c806342318e3d1461003a575b600080fd5b610054600480360381019061004f91906100d7565b61006a565b6040516100619190610126565b60405180910390f35b6000806064838561007b9190610170565b61008591906101f9565b84610090919061022a565b90508091505092915050565b600080fd5b6000819050919050565b6100b4816100a1565b81146100bf57600080fd5b50565b6000813590506100d1816100ab565b92915050565b600080604083850312156100ee576100ed61009c565b5b60006100fc858286016100c2565b925050602061010d858286016100c2565b9150509250929050565b610120816100a1565b82525050565b600060208201905061013b6000830184610117565b92915050565b7f4e487b7100000000000000000000000000000000000000000000000000000000600052601160045260246000fd5b600061017b826100a1565b9150610186836100a1565b9250817fffffffffffffffffffffffffffffffffffffffffffffffffffffffffffffffff04831182151516156101bf576101be610141565b5b828202905092915050565b7f4e487b7100000000000000000000000000000000000000000000000000000000600052601260045260246000fd5b6000610204826100a1565b915061020f836100a1565b92508261021f5761021e6101ca565b5b828204905092915050565b6000610235826100a1565b9150610240836100a1565b92508282101561025357610252610141565b5b82820390509291505056fea2646970667358221220400f9952922f919e5eb64cfb8d8400bbd46f27b6a8f2cb09b65c07c7b4d21ea364736f6c634300080e0033",
  "immutableReferences": {},
  "source": "// SPDX-License-Identifier: MIT\npragma solidity >=0.4.22 <0.9.0;\n\ninterface IERC20 {\n    function totalSupply() external view returns (uint256);\n    function balanceOf(address account) external view returns (uint256);\n    function transfer(address recipient, uint256 amount) external returns (bool);\n    event Transfer(address from, address to, uint256 value);\n    \n}\n\ncontract CryptoToken is IERC20 {\n    //Libs\n    using Math for uint256;\n\n\n    //Properties\n    string public constant name = \"CryptoToken\";\n    string public constant symbol = \"CRY\";\n    uint8 public constant decimals = 3; //Default dos exemplos  sempre 18\n    uint256 private totalsupply;\n    address private owner;\n    address[] private tokenOwners;\n\n    mapping(address => uint256) private addressToBalance;\n\n    modifier isOwner() {\n        require(address(msg.sender) == owner, \"Sender is not owner!\");\n        _;\n    }\n\n    //Constructor\n    constructor() {\n        uint256 total = 3000000000;\n        totalsupply = total;\n        owner = msg.sender;\n        addressToBalance[owner] = totalsupply;\n        tokenOwners.push(owner);\n    }\n\n    //Public Functions\n    function totalSupply() public view override returns (uint256) {\n        return totalsupply;\n    }\n\n    function balanceOf(address tokenOwner) public view override returns (uint256){\n        return addressToBalance[tokenOwner];\n    }\n\n\n    function transfer(address receiver, uint256 quantity) public override isOwner returns (bool){\n        require(quantity <= addressToBalance[owner],\"Insufficient Balance to Transfer\");\n        addressToBalance[owner] = addressToBalance[owner] - quantity;\n        addressToBalance[receiver] = addressToBalance[receiver] + quantity;\n        tokenOwners.push(receiver);\n\n        emit Transfer(owner, receiver, quantity);\n        return true;\n    }\n\n    \n    \n}\n\nlibrary Math {\n    function percent(uint256 a, uint256 b) public pure returns(uint256){\n        uint256 c = a - a*b/100;\n        return c;\n    }\n}",
  "sourcePath": "/home/jp/rea de Trabalho/UdemySolidity+React/Vending Machine+React/contracts/CryptoToken.sol",
  "compiler": {
    "name": "solc",
    "version": "0.8.14+commit.80d49f37.Emscripten.clang"
  },
  "schemaVersion": "3.4.7",
  "updatedAt": "2022-07-08T21:33:43.525Z",
  "devdoc": {
    "kind": "dev",
    "methods": {},
    "version": 1
  },
  "userdoc": {
    "kind": "user",
    "methods": {},
    "version": 1
  }
}