{
  "contractName": "VendingMachine",
  "abi": [
    {
      "inputs": [
        {
          "internalType": "address",
          "name": "TAddress",
          "type": "address"
        }
      ],
      "stateMutability": "nonpayable",
      "type": "constructor"
    },
    {
      "anonymous": false,
      "inputs": [
        {
          "indexed": false,
          "internalType": "address",
          "name": "from",
          "type": "address"
        },
        {
          "indexed": false,
          "internalType": "address",
          "name": "to",
          "type": "address"
        },
        {
          "indexed": false,
          "internalType": "uint256",
          "name": "value",
          "type": "uint256"
        }
      ],
      "name": "Transfer",
      "type": "event"
    },
    {
      "inputs": [
        {
          "internalType": "address",
          "name": "tokenOwner",
          "type": "address"
        }
      ],
      "name": "balanceOf",
      "outputs": [
        {
          "internalType": "uint256",
          "name": "",
          "type": "uint256"
        }
      ],
      "stateMutability": "view",
      "type": "function"
    },
    {
      "inputs": [],
      "name": "decimals",
      "outputs": [
        {
          "internalType": "uint8",
          "name": "",
          "type": "uint8"
        }
      ],
      "stateMutability": "view",
      "type": "function"
    },
    {
      "inputs": [],
      "name": "name",
      "outputs": [
        {
          "internalType": "string",
          "name": "",
          "type": "string"
        }
      ],
      "stateMutability": "view",
      "type": "function"
    },
    {
      "inputs": [],
      "name": "symbol",
      "outputs": [
        {
          "internalType": "string",
          "name": "",
          "type": "string"
        }
      ],
      "stateMutability": "view",
      "type": "function"
    },
    {
      "inputs": [],
      "name": "totalSupply",
      "outputs": [
        {
          "internalType": "uint256",
          "name": "",
          "type": "uint256"
        }
      ],
      "stateMutability": "view",
      "type": "function"
    },
    {
      "inputs": [
        {
          "internalType": "address",
          "name": "receiver",
          "type": "address"
        },
        {
          "internalType": "uint256",
          "name": "quantity",
          "type": "uint256"
        }
      ],
      "name": "transfer",
      "outputs": [
        {
          "internalType": "bool",
          "name": "",
          "type": "bool"
        }
      ],
      "stateMutability": "nonpayable",
      "type": "function"
    },
    {
      "inputs": [],
      "name": "purchaseGama10",
      "outputs": [],
      "stateMutability": "payable",
      "type": "function"
    },
    {
      "inputs": [
        {
          "internalType": "uint256",
          "name": "amount",
          "type": "uint256"
        }
      ],
      "name": "sellingGama",
      "outputs": [],
      "stateMutability": "nonpayable",
      "type": "function"
    },
    {
      "inputs": [],
      "name": "getBuyerBalanceGama",
      "outputs": [
        {
          "internalType": "uint256",
          "name": "GamaToken",
          "type": "uint256"
        }
      ],
      "stateMutability": "view",
      "type": "function"
    },
    {
      "inputs": [],
      "name": "getVendingMachingBalanceEth",
      "outputs": [
        {
          "internalType": "uint256",
          "name": "EthToken",
          "type": "uint256"
        }
      ],
      "stateMutability": "view",
      "type": "function"
    },
    {
      "inputs": [],
      "name": "getOwner",
      "outputs": [
        {
          "internalType": "address",
          "name": "",
          "type": "address"
        }
      ],
      "stateMutability": "view",
      "type": "function"
    },
    {
      "inputs": [],
      "name": "restockEth",
      "outputs": [],
      "stateMutability": "payable",
      "type": "function"
    },
    {
      "inputs": [
        {
          "internalType": "uint256",
          "name": "amountWithdraw",
          "type": "uint256"
        }
      ],
      "name": "toWithdraw",
      "outputs": [],
      "stateMutability": "payable",
      "type": "function"
    }
  ],
  "bytecode": "0x60806040523480156200001157600080fd5b506040516200159538038062001595833981810160405281019062000037919062000279565b600063b2d05e0090508060008190555033600160006101000a81548173ffffffffffffffffffffffffffffffffffffffff021916908373ffffffffffffffffffffffffffffffffffffffff16021790555060005460036000600160009054906101000a900473ffffffffffffffffffffffffffffffffffffffff1673ffffffffffffffffffffffffffffffffffffffff1673ffffffffffffffffffffffffffffffffffffffff168152602001908152602001600020819055506002600160009054906101000a900473ffffffffffffffffffffffffffffffffffffffff169080600181540180825580915050600190039060005260206000200160009091909190916101000a81548173ffffffffffffffffffffffffffffffffffffffff021916908373ffffffffffffffffffffffffffffffffffffffff1602179055505033600860006101000a81548173ffffffffffffffffffffffffffffffffffffffff021916908373ffffffffffffffffffffffffffffffffffffffff1602179055506001600581905550600160068190555080600760006101000a81548173ffffffffffffffffffffffffffffffffffffffff021916908373ffffffffffffffffffffffffffffffffffffffff16021790555050620002ab565b600080fd5b600073ffffffffffffffffffffffffffffffffffffffff82169050919050565b6000620002418262000214565b9050919050565b620002538162000234565b81146200025f57600080fd5b50565b600081519050620002738162000248565b92915050565b6000602082840312156200029257620002916200020f565b5b6000620002a28482850162000262565b91505092915050565b6112da80620002bb6000396000f3fe6080604052600436106100c25760003560e01c806370a082311161007f57806392ab4dd41161005957806392ab4dd41461020b57806395d89b4114610234578063a9059cbb1461025f578063d973eec11461029c576100c2565b806370a082311461019957806387a60e13146101d6578063893d20e8146101e0576100c2565b806306fdde03146100c75780630d82c853146100f257806318160ddd1461010e57806319ceb003146101395780632047478c14610143578063313ce5671461016e575b600080fd5b3480156100d357600080fd5b506100dc6102c7565b6040516100e99190610bce565b60405180910390f35b61010c60048036038101906101079190610c2b565b610300565b005b34801561011a57600080fd5b50610123610460565b6040516101309190610c67565b60405180910390f35b610141610469565b005b34801561014f57600080fd5b5061015861053e565b6040516101659190610c67565b60405180910390f35b34801561017a57600080fd5b5061018361054e565b6040516101909190610c9e565b60405180910390f35b3480156101a557600080fd5b506101c060048036038101906101bb9190610d17565b610553565b6040516101cd9190610c67565b60405180910390f35b6101de61059c565b005b3480156101ec57600080fd5b506101f5610668565b6040516102029190610d53565b60405180910390f35b34801561021757600080fd5b50610232600480360381019061022d9190610c2b565b610692565b005b34801561024057600080fd5b50610249610777565b6040516102569190610bce565b60405180910390f35b34801561026b57600080fd5b5061028660048036038101906102819190610d6e565b6107b0565b6040516102939190610dc9565b60405180910390f35b3480156102a857600080fd5b506102b1610b10565b6040516102be9190610c67565b60405180910390f35b6040518060400160405280600b81526020017f43727970746f546f6b656e00000000000000000000000000000000000000000081525081565b600160009054906101000a900473ffffffffffffffffffffffffffffffffffffffff1673ffffffffffffffffffffffffffffffffffffffff163373ffffffffffffffffffffffffffffffffffffffff1614610390576040517f08c379a000000000000000000000000000000000000000000000000000000000815260040161038790610e30565b60405180910390fd5b478111156103d3576040517f08c379a00000000000000000000000000000000000000000000000000000000081526004016103ca90610e9c565b60405180910390fd5b3373ffffffffffffffffffffffffffffffffffffffff166108fc6103f683610b18565b9081150290604051600060405180830381858888f19350505050158015610421573d6000803e3d6000fd5b507fddf252ad1be2c89b69c2b068fc378daa952ba7f163c4a11628f55a4df523b3ef30338360405161045593929190610ebc565b60405180910390a150565b60008054905090565b600160009054906101000a900473ffffffffffffffffffffffffffffffffffffffff1673ffffffffffffffffffffffffffffffffffffffff163373ffffffffffffffffffffffffffffffffffffffff16146104f9576040517f08c379a00000000000000000000000000000000000000000000000000000000081526004016104f090610e30565b60405180910390fd5b6000341161053c576040517f08c379a000000000000000000000000000000000000000000000000000000000815260040161053390610f65565b60405180910390fd5b565b600061054933610553565b905090565b600381565b6000600360008373ffffffffffffffffffffffffffffffffffffffff1673ffffffffffffffffffffffffffffffffffffffff168152602001908152602001600020549050919050565b670de0b6b3a764000034146105b057600080fd5b600a6105dd600860009054906101000a900473ffffffffffffffffffffffffffffffffffffffff16610553565b101561061e576040517f08c379a000000000000000000000000000000000000000000000000000000000815260040161061590610ff7565b60405180910390fd5b61062933600a6107b0565b507fddf252ad1be2c89b69c2b068fc378daa952ba7f163c4a11628f55a4df523b3ef3033600a60405161065e9392919061105c565b60405180910390a1565b6000600860009054906101000a900473ffffffffffffffffffffffffffffffffffffffff16905090565b8061069c33610553565b10156106dd576040517f08c379a00000000000000000000000000000000000000000000000000000000081526004016106d490611105565b60405180910390fd5b3373ffffffffffffffffffffffffffffffffffffffff166108fc60065461070384610b18565b61070d9190611154565b9081150290604051600060405180830381858888f19350505050158015610738573d6000803e3d6000fd5b507fddf252ad1be2c89b69c2b068fc378daa952ba7f163c4a11628f55a4df523b3ef33308360405161076c93929190610ebc565b60405180910390a150565b6040518060400160405280600381526020017f435259000000000000000000000000000000000000000000000000000000000081525081565b6000600160009054906101000a900473ffffffffffffffffffffffffffffffffffffffff1673ffffffffffffffffffffffffffffffffffffffff163373ffffffffffffffffffffffffffffffffffffffff1614610842576040517f08c379a000000000000000000000000000000000000000000000000000000000815260040161083990610e30565b60405180910390fd5b60036000600160009054906101000a900473ffffffffffffffffffffffffffffffffffffffff1673ffffffffffffffffffffffffffffffffffffffff1673ffffffffffffffffffffffffffffffffffffffff168152602001908152602001600020548211156108e6576040517f08c379a00000000000000000000000000000000000000000000000000000000081526004016108dd906111fa565b60405180910390fd5b8160036000600160009054906101000a900473ffffffffffffffffffffffffffffffffffffffff1673ffffffffffffffffffffffffffffffffffffffff1673ffffffffffffffffffffffffffffffffffffffff16815260200190815260200160002054610953919061121a565b60036000600160009054906101000a900473ffffffffffffffffffffffffffffffffffffffff1673ffffffffffffffffffffffffffffffffffffffff1673ffffffffffffffffffffffffffffffffffffffff1681526020019081526020016000208190555081600360008573ffffffffffffffffffffffffffffffffffffffff1673ffffffffffffffffffffffffffffffffffffffff16815260200190815260200160002054610a03919061124e565b600360008573ffffffffffffffffffffffffffffffffffffffff1673ffffffffffffffffffffffffffffffffffffffff168152602001908152602001600020819055506002839080600181540180825580915050600190039060005260206000200160009091909190916101000a81548173ffffffffffffffffffffffffffffffffffffffff021916908373ffffffffffffffffffffffffffffffffffffffff1602179055507fddf252ad1be2c89b69c2b068fc378daa952ba7f163c4a11628f55a4df523b3ef600160009054906101000a900473ffffffffffffffffffffffffffffffffffffffff168484604051610afe93929190610ebc565b60405180910390a16001905092915050565b600047905090565b6000670de0b6b3a764000082610b2e9190611154565b9050919050565b600081519050919050565b600082825260208201905092915050565b60005b83811015610b6f578082015181840152602081019050610b54565b83811115610b7e576000848401525b50505050565b6000601f19601f8301169050919050565b6000610ba082610b35565b610baa8185610b40565b9350610bba818560208601610b51565b610bc381610b84565b840191505092915050565b60006020820190508181036000830152610be88184610b95565b905092915050565b600080fd5b6000819050919050565b610c0881610bf5565b8114610c1357600080fd5b50565b600081359050610c2581610bff565b92915050565b600060208284031215610c4157610c40610bf0565b5b6000610c4f84828501610c16565b91505092915050565b610c6181610bf5565b82525050565b6000602082019050610c7c6000830184610c58565b92915050565b600060ff82169050919050565b610c9881610c82565b82525050565b6000602082019050610cb36000830184610c8f565b92915050565b600073ffffffffffffffffffffffffffffffffffffffff82169050919050565b6000610ce482610cb9565b9050919050565b610cf481610cd9565b8114610cff57600080fd5b50565b600081359050610d1181610ceb565b92915050565b600060208284031215610d2d57610d2c610bf0565b5b6000610d3b84828501610d02565b91505092915050565b610d4d81610cd9565b82525050565b6000602082019050610d686000830184610d44565b92915050565b60008060408385031215610d8557610d84610bf0565b5b6000610d9385828601610d02565b9250506020610da485828601610c16565b9150509250929050565b60008115159050919050565b610dc381610dae565b82525050565b6000602082019050610dde6000830184610dba565b92915050565b7f53656e646572206973206e6f74206f776e657221000000000000000000000000600082015250565b6000610e1a601483610b40565b9150610e2582610de4565b602082019050919050565b60006020820190508181036000830152610e4981610e0d565b9050919050565b7f4e6f7420656e6f7567682065746820746f2077697468647261772e0000000000600082015250565b6000610e86601b83610b40565b9150610e9182610e50565b602082019050919050565b60006020820190508181036000830152610eb581610e79565b9050919050565b6000606082019050610ed16000830186610d44565b610ede6020830185610d44565b610eeb6040830184610c58565b949350505050565b7f596f752063616e277420726573746f636b2030206f72206c657373204574686560008201527f72732e0000000000000000000000000000000000000000000000000000000000602082015250565b6000610f4f602383610b40565b9150610f5a82610ef3565b604082019050919050565b60006020820190508181036000830152610f7e81610f42565b9050919050565b7f4e6f7420656e6f7567682047616d617320696e2073746f636b20746f2066756c60008201527f66696c6c20707572636861736520726571756573742e00000000000000000000602082015250565b6000610fe1603683610b40565b9150610fec82610f85565b604082019050919050565b6000602082019050818103600083015261101081610fd4565b9050919050565b6000819050919050565b6000819050919050565b600061104661104161103c84611017565b611021565b610bf5565b9050919050565b6110568161102b565b82525050565b60006060820190506110716000830186610d44565b61107e6020830185610d44565b61108b604083018461104d565b949350505050565b7f4e6f7420656e6f7567682047616d617320746f20747261646520666f7220657460008201527f6865722e00000000000000000000000000000000000000000000000000000000602082015250565b60006110ef602483610b40565b91506110fa82611093565b604082019050919050565b6000602082019050818103600083015261111e816110e2565b9050919050565b7f4e487b7100000000000000000000000000000000000000000000000000000000600052601160045260246000fd5b600061115f82610bf5565b915061116a83610bf5565b9250817fffffffffffffffffffffffffffffffffffffffffffffffffffffffffffffffff04831182151516156111a3576111a2611125565b5b828202905092915050565b7f496e73756666696369656e742042616c616e636520746f205472616e73666572600082015250565b60006111e4602083610b40565b91506111ef826111ae565b602082019050919050565b60006020820190508181036000830152611213816111d7565b9050919050565b600061122582610bf5565b915061123083610bf5565b92508282101561124357611242611125565b5b828203905092915050565b600061125982610bf5565b915061126483610bf5565b9250827fffffffffffffffffffffffffffffffffffffffffffffffffffffffffffffffff0382111561129957611298611125565b5b82820190509291505056fea2646970667358221220de238eb104fae62cb7b1ea9dd90ca6f7ff7dab6ccfd1a1c87d504c5cf3e9b90964736f6c634300080e0033",
  "immutableReferences": {},
  "source": "// SPDX-License-Identifier: MIT\npragma solidity >=0.4.22 <0.9.0;\n\nimport \"./CryptoToken.sol\";\n\ncontract VendingMachine is CryptoToken {\n\n    // Properties\n    mapping (address => uint) internal GamaToBalances;\n    uint256 private gamaBuyValue;\n    uint256 private gamaSellValue;\n    address private tokenAddress;\n    address private owner;\n\n    //Constructor\n    constructor(address TAddress){\n        owner = msg.sender;\n        gamaBuyValue = 1;\n        gamaSellValue = 1;\n        tokenAddress = TAddress;\n    }\n\n    // Public Function\n\n\t\t//Funo para Compra de Gama por ETH na mquina de venda.\n    function purchaseGama10() public payable{\n        require(msg.value == 1 ether);\n        require(balanceOf(owner) >= 10, \"Not enough Gamas in stock to fulfill purchase request.\");\n        transfer(msg.sender, 10);\n        emit Transfer(address(this), msg.sender, 10);\n    }\n\n\n\t  function sellingGama(uint256 amount) public{\n        require(balanceOf(msg.sender) >= amount, \"Not enough Gamas to trade for ether.\");\n        payable(msg.sender).transfer(weiToEther(amount)*gamaSellValue);\n        emit Transfer(msg.sender, address(this), amount);\n    }\n\n    //Function weiToEther *Converte de wei para ether\n    function weiToEther(uint256 amount) internal pure returns(uint256 weiEther){\n        weiEther = amount*1000000000000000000;\n        return weiEther;\n    }\n\n    //Functions Getters and Setters\n\n    function getBuyerBalanceGama() public view returns(uint256 GamaToken){\n       \n        return balanceOf(msg.sender);\n    }\n\n    function getVendingMachingBalanceEth() public view returns(uint256 EthToken){\n        \n        return address(this).balance;\n    }\n\n\n    //Funes de manuteno\n\n    function getOwner() public view returns(address){\n        return address(owner);\n    }\n  \n    function restockEth() public payable isOwner{\n        require(msg.value > 0,\"You can't restock 0 or less Ethers.\");\n    }\n\n\n\n    function toWithdraw(uint256 amountWithdraw) public payable isOwner{\n        require(amountWithdraw <= address(this).balance, \"Not enough eth to withdraw.\");\n        payable(msg.sender).transfer(weiToEther(amountWithdraw));\n        emit Transfer(address(this), msg.sender, amountWithdraw);\n    }\n}",
  "sourcePath": "/home/jp/rea de Trabalho/UdemySolidity+React/Vending Machine+React/contracts/VendingMachine.sol",
  "compiler": {
    "name": "solc",
    "version": "0.8.14+commit.80d49f37.Emscripten.clang"
  },
  "schemaVersion": "3.4.7",
  "updatedAt": "2022-07-08T21:33:43.586Z",
  "devdoc": {
    "kind": "dev",
    "methods": {},
    "version": 1
  },
  "userdoc": {
    "kind": "user",
    "methods": {},
    "version": 1
  }
}